{"contracts/SensorDataBatch.sol":{"SensorDataBatch":{"abi":[{"anonymous":false,"inputs":[{"indexed":true,"internalType":"uint256","name":"dateKey","type":"uint256"},{"indexed":false,"internalType":"uint256","name":"timestamp","type":"uint256"},{"indexed":false,"internalType":"string","name":"hexData","type":"string"}],"name":"SensorBatchReceived","type":"event"},{"inputs":[{"internalType":"uint256","name":"dateKey","type":"uint256"}],"name":"getAllSensorBatchesForDay","outputs":[{"components":[{"internalType":"uint256","name":"timestamp","type":"uint256"},{"internalType":"string","name":"hexData","type":"string"}],"internalType":"struct SensorDataBatch.SensorBatch[]","name":"","type":"tuple[]"}],"stateMutability":"view","type":"function"},{"inputs":[{"internalType":"uint256","name":"dateKey","type":"uint256"}],"name":"getBatchCount","outputs":[{"internalType":"uint256","name":"","type":"uint256"}],"stateMutability":"view","type":"function"},{"inputs":[{"internalType":"uint256","name":"dateKey","type":"uint256"},{"internalType":"uint256","name":"index","type":"uint256"}],"name":"getSensorBatch","outputs":[{"internalType":"uint256","name":"","type":"uint256"},{"internalType":"string","name":"","type":"string"}],"stateMutability":"view","type":"function"},{"inputs":[{"internalType":"uint256","name":"timestamp","type":"uint256"},{"internalType":"string","name":"hexData","type":"string"}],"name":"receiveSensorBatch","outputs":[],"stateMutability":"nonpayable","type":"function"}],"evm":{"bytecode":{"linkReferences":{},"object":"608060405234801561001057600080fd5b50610c9a806100206000396000f3fe608060405234801561001057600080fd5b506004361061004c5760003560e01c806327c3afd6146100515780638a0e85e314610081578063ce4c433b1461009d578063de46af71146100cd575b600080fd5b61006b60048036038101906100669190610461565b6100fe565b604051610078919061062c565b60405180910390f35b61009b600480360381019061009691906106b3565b61020b565b005b6100b760048036038101906100b29190610461565b610327565b6040516100c49190610722565b60405180910390f35b6100e760048036038101906100e2919061073d565b610346565b6040516100f59291906107c7565b60405180910390f35b6060600080838152602001908152602001600020805480602002602001604051908101604052809291908181526020016000905b8282101561020057838290600052602060002090600202016040518060400160405290816000820154815260200160018201805461016f90610826565b80601f016020809104026020016040519081016040528092919081815260200182805461019b90610826565b80156101e85780601f106101bd576101008083540402835291602001916101e8565b820191906000526020600020905b8154815290600101906020018083116101cb57829003601f168201915b50505050508152505081526020019060010190610132565b505050509050919050565b6000620151808461021c9190610886565b8461022791906108e6565b90506000604051806040016040528086815260200185858080601f016020809104026020016040519081016040528093929190818152602001838380828437600081840152601f19601f8201169050808301925050505050505081525090506000808381526020019081526020016000208190806001815401808255809150506001900390600052602060002090600202016000909190919091506000820151816000015560208201518160010190816102e19190610af5565b505050817f96c17ce4db411bf999e051880b4d8562eec9fa91282dc641b6bea7c2b252125a86868660405161031893929190610c03565b60405180910390a25050505050565b6000806000838152602001908152602001600020805490509050919050565b60006060600080600086815260200190815260200160002084815481106103705761036f610c35565b5b9060005260206000209060020201905080600001548160010180805461039590610826565b80601f01602080910402602001604051908101604052809291908181526020018280546103c190610826565b801561040e5780601f106103e35761010080835404028352916020019161040e565b820191906000526020600020905b8154815290600101906020018083116103f157829003601f168201915b5050505050905092509250509250929050565b600080fd5b600080fd5b6000819050919050565b61043e8161042b565b811461044957600080fd5b50565b60008135905061045b81610435565b92915050565b60006020828403121561047757610476610421565b5b60006104858482850161044c565b91505092915050565b600081519050919050565b600082825260208201905092915050565b6000819050602082019050919050565b6104c38161042b565b82525050565b600081519050919050565b600082825260208201905092915050565b60005b838110156105035780820151818401526020810190506104e8565b60008484015250505050565b6000601f19601f8301169050919050565b600061052b826104c9565b61053581856104d4565b93506105458185602086016104e5565b61054e8161050f565b840191505092915050565b600060408301600083015161057160008601826104ba565b50602083015184820360208601526105898282610520565b9150508091505092915050565b60006105a28383610559565b905092915050565b6000602082019050919050565b60006105c28261048e565b6105cc8185610499565b9350836020820285016105de856104aa565b8060005b8581101561061a57848403895281516105fb8582610596565b9450610606836105aa565b925060208a019950506001810190506105e2565b50829750879550505050505092915050565b6000602082019050818103600083015261064681846105b7565b905092915050565b600080fd5b600080fd5b600080fd5b60008083601f8401126106735761067261064e565b5b8235905067ffffffffffffffff8111156106905761068f610653565b5b6020830191508360018202830111156106ac576106ab610658565b5b9250929050565b6000806000604084860312156106cc576106cb610421565b5b60006106da8682870161044c565b935050602084013567ffffffffffffffff8111156106fb576106fa610426565b5b6107078682870161065d565b92509250509250925092565b61071c8161042b565b82525050565b60006020820190506107376000830184610713565b92915050565b6000806040838503121561075457610753610421565b5b60006107628582860161044c565b92505060206107738582860161044c565b9150509250929050565b600082825260208201905092915050565b6000610799826104c9565b6107a3818561077d565b93506107b38185602086016104e5565b6107bc8161050f565b840191505092915050565b60006040820190506107dc6000830185610713565b81810360208301526107ee818461078e565b90509392505050565b7f4e487b7100000000000000000000000000000000000000000000000000000000600052602260045260246000fd5b6000600282049050600182168061083e57607f821691505b602082108103610851576108506107f7565b5b50919050565b7f4e487b7100000000000000000000000000000000000000000000000000000000600052601260045260246000fd5b60006108918261042b565b915061089c8361042b565b9250826108ac576108ab610857565b5b828206905092915050565b7f4e487b7100000000000000000000000000000000000000000000000000000000600052601160045260246000fd5b60006108f18261042b565b91506108fc8361042b565b9250828203905081811115610914576109136108b7565b5b92915050565b7f4e487b7100000000000000000000000000000000000000000000000000000000600052604160045260246000fd5b60008190508160005260206000209050919050565b60006020601f8301049050919050565b600082821b905092915050565b6000600883026109ab7fffffffffffffffffffffffffffffffffffffffffffffffffffffffffffffffff8261096e565b6109b5868361096e565b95508019841693508086168417925050509392505050565b6000819050919050565b60006109f26109ed6109e88461042b565b6109cd565b61042b565b9050919050565b6000819050919050565b610a0c836109d7565b610a20610a18826109f9565b84845461097b565b825550505050565b600090565b610a35610a28565b610a40818484610a03565b505050565b5b81811015610a6457610a59600082610a2d565b600181019050610a46565b5050565b601f821115610aa957610a7a81610949565b610a838461095e565b81016020851015610a92578190505b610aa6610a9e8561095e565b830182610a45565b50505b505050565b600082821c905092915050565b6000610acc60001984600802610aae565b1980831691505092915050565b6000610ae58383610abb565b9150826002028217905092915050565b610afe826104c9565b67ffffffffffffffff811115610b1757610b1661091a565b5b610b218254610826565b610b2c828285610a68565b600060209050601f831160018114610b5f5760008415610b4d578287015190505b610b578582610ad9565b865550610bbf565b601f198416610b6d86610949565b60005b82811015610b9557848901518255600182019150602085019450602081019050610b70565b86831015610bb25784890151610bae601f891682610abb565b8355505b6001600288020188555050505b505050505050565b82818337600083830152505050565b6000610be2838561077d565b9350610bef838584610bc7565b610bf88361050f565b840190509392505050565b6000604082019050610c186000830186610713565b8181036020830152610c2b818486610bd6565b9050949350505050565b7f4e487b7100000000000000000000000000000000000000000000000000000000600052603260045260246000fdfea26469706673582212206732edd9dd6f0f10331210351219180856bcdb1c05e64bcbffa3bae1e21fea5764736f6c63430008120033","opcodes":"PUSH1 0x80 PUSH1 0x40 MSTORE CALLVALUE DUP1 ISZERO PUSH2 0x10 JUMPI PUSH1 0x0 DUP1 REVERT JUMPDEST POP PUSH2 0xC9A DUP1 PUSH2 0x20 PUSH1 0x0 CODECOPY PUSH1 0x0 RETURN INVALID PUSH1 0x80 PUSH1 0x40 MSTORE CALLVALUE DUP1 ISZERO PUSH2 0x10 JUMPI PUSH1 0x0 DUP1 REVERT JUMPDEST POP PUSH1 0x4 CALLDATASIZE LT PUSH2 0x4C JUMPI PUSH1 0x0 CALLDATALOAD PUSH1 0xE0 SHR DUP1 PUSH4 0x27C3AFD6 EQ PUSH2 0x51 JUMPI DUP1 PUSH4 0x8A0E85E3 EQ PUSH2 0x81 JUMPI DUP1 PUSH4 0xCE4C433B EQ PUSH2 0x9D JUMPI DUP1 PUSH4 0xDE46AF71 EQ PUSH2 0xCD JUMPI JUMPDEST PUSH1 0x0 DUP1 REVERT JUMPDEST PUSH2 0x6B PUSH1 0x4 DUP1 CALLDATASIZE SUB DUP2 ADD SWAP1 PUSH2 0x66 SWAP2 SWAP1 PUSH2 0x461 JUMP JUMPDEST PUSH2 0xFE JUMP JUMPDEST PUSH1 0x40 MLOAD PUSH2 0x78 SWAP2 SWAP1 PUSH2 0x62C JUMP JUMPDEST PUSH1 0x40 MLOAD DUP1 SWAP2 SUB SWAP1 RETURN JUMPDEST PUSH2 0x9B PUSH1 0x4 DUP1 CALLDATASIZE SUB DUP2 ADD SWAP1 PUSH2 0x96 SWAP2 SWAP1 PUSH2 0x6B3 JUMP JUMPDEST PUSH2 0x20B JUMP JUMPDEST STOP JUMPDEST PUSH2 0xB7 PUSH1 0x4 DUP1 CALLDATASIZE SUB DUP2 ADD SWAP1 PUSH2 0xB2 SWAP2 SWAP1 PUSH2 0x461 JUMP JUMPDEST PUSH2 0x327 JUMP JUMPDEST PUSH1 0x40 MLOAD PUSH2 0xC4 SWAP2 SWAP1 PUSH2 0x722 JUMP JUMPDEST PUSH1 0x40 MLOAD DUP1 SWAP2 SUB SWAP1 RETURN JUMPDEST PUSH2 0xE7 PUSH1 0x4 DUP1 CALLDATASIZE SUB DUP2 ADD SWAP1 PUSH2 0xE2 SWAP2 SWAP1 PUSH2 0x73D JUMP JUMPDEST PUSH2 0x346 JUMP JUMPDEST PUSH1 0x40 MLOAD PUSH2 0xF5 SWAP3 SWAP2 SWAP1 PUSH2 0x7C7 JUMP JUMPDEST PUSH1 0x40 MLOAD DUP1 SWAP2 SUB SWAP1 RETURN JUMPDEST PUSH1 0x60 PUSH1 0x0 DUP1 DUP4 DUP2 MSTORE PUSH1 0x20 ADD SWAP1 DUP2 MSTORE PUSH1 0x20 ADD PUSH1 0x0 KECCAK256 DUP1 SLOAD DUP1 PUSH1 0x20 MUL PUSH1 0x20 ADD PUSH1 0x40 MLOAD SWAP1 DUP2 ADD PUSH1 0x40 MSTORE DUP1 SWAP3 SWAP2 SWAP1 DUP2 DUP2 MSTORE PUSH1 0x20 ADD PUSH1 0x0 SWAP1 JUMPDEST DUP3 DUP3 LT ISZERO PUSH2 0x200 JUMPI DUP4 DUP3 SWAP1 PUSH1 0x0 MSTORE PUSH1 0x20 PUSH1 0x0 KECCAK256 SWAP1 PUSH1 0x2 MUL ADD PUSH1 0x40 MLOAD DUP1 PUSH1 0x40 ADD PUSH1 0x40 MSTORE SWAP1 DUP2 PUSH1 0x0 DUP3 ADD SLOAD DUP2 MSTORE PUSH1 0x20 ADD PUSH1 0x1 DUP3 ADD DUP1 SLOAD PUSH2 0x16F SWAP1 PUSH2 0x826 JUMP JUMPDEST DUP1 PUSH1 0x1F ADD PUSH1 0x20 DUP1 SWAP2 DIV MUL PUSH1 0x20 ADD PUSH1 0x40 MLOAD SWAP1 DUP2 ADD PUSH1 0x40 MSTORE DUP1 SWAP3 SWAP2 SWAP1 DUP2 DUP2 MSTORE PUSH1 0x20 ADD DUP3 DUP1 SLOAD PUSH2 0x19B SWAP1 PUSH2 0x826 JUMP JUMPDEST DUP1 ISZERO PUSH2 0x1E8 JUMPI DUP1 PUSH1 0x1F LT PUSH2 0x1BD JUMPI PUSH2 0x100 DUP1 DUP4 SLOAD DIV MUL DUP4 MSTORE SWAP2 PUSH1 0x20 ADD SWAP2 PUSH2 0x1E8 JUMP JUMPDEST DUP3 ADD SWAP2 SWAP1 PUSH1 0x0 MSTORE PUSH1 0x20 PUSH1 0x0 KECCAK256 SWAP1 JUMPDEST DUP2 SLOAD DUP2 MSTORE SWAP1 PUSH1 0x1 ADD SWAP1 PUSH1 0x20 ADD DUP1 DUP4 GT PUSH2 0x1CB JUMPI DUP3 SWAP1 SUB PUSH1 0x1F AND DUP3 ADD SWAP2 JUMPDEST POP POP POP POP POP DUP2 MSTORE POP POP DUP2 MSTORE PUSH1 0x20 ADD SWAP1 PUSH1 0x1 ADD SWAP1 PUSH2 0x132 JUMP JUMPDEST POP POP POP POP SWAP1 POP SWAP2 SWAP1 POP JUMP JUMPDEST PUSH1 0x0 PUSH3 0x15180 DUP5 PUSH2 0x21C SWAP2 SWAP1 PUSH2 0x886 JUMP JUMPDEST DUP5 PUSH2 0x227 SWAP2 SWAP1 PUSH2 0x8E6 JUMP JUMPDEST SWAP1 POP PUSH1 0x0 PUSH1 0x40 MLOAD DUP1 PUSH1 0x40 ADD PUSH1 0x40 MSTORE DUP1 DUP7 DUP2 MSTORE PUSH1 0x20 ADD DUP6 DUP6 DUP1 DUP1 PUSH1 0x1F ADD PUSH1 0x20 DUP1 SWAP2 DIV MUL PUSH1 0x20 ADD PUSH1 0x40 MLOAD SWAP1 DUP2 ADD PUSH1 0x40 MSTORE DUP1 SWAP4 SWAP3 SWAP2 SWAP1 DUP2 DUP2 MSTORE PUSH1 0x20 ADD DUP4 DUP4 DUP1 DUP3 DUP5 CALLDATACOPY PUSH1 0x0 DUP2 DUP5 ADD MSTORE PUSH1 0x1F NOT PUSH1 0x1F DUP3 ADD AND SWAP1 POP DUP1 DUP4 ADD SWAP3 POP POP POP POP POP POP POP DUP2 MSTORE POP SWAP1 POP PUSH1 0x0 DUP1 DUP4 DUP2 MSTORE PUSH1 0x20 ADD SWAP1 DUP2 MSTORE PUSH1 0x20 ADD PUSH1 0x0 KECCAK256 DUP2 SWAP1 DUP1 PUSH1 0x1 DUP2 SLOAD ADD DUP1 DUP3 SSTORE DUP1 SWAP2 POP POP PUSH1 0x1 SWAP1 SUB SWAP1 PUSH1 0x0 MSTORE PUSH1 0x20 PUSH1 0x0 KECCAK256 SWAP1 PUSH1 0x2 MUL ADD PUSH1 0x0 SWAP1 SWAP2 SWAP1 SWAP2 SWAP1 SWAP2 POP PUSH1 0x0 DUP3 ADD MLOAD DUP2 PUSH1 0x0 ADD SSTORE PUSH1 0x20 DUP3 ADD MLOAD DUP2 PUSH1 0x1 ADD SWAP1 DUP2 PUSH2 0x2E1 SWAP2 SWAP1 PUSH2 0xAF5 JUMP JUMPDEST POP POP POP DUP2 PUSH32 0x96C17CE4DB411BF999E051880B4D8562EEC9FA91282DC641B6BEA7C2B252125A DUP7 DUP7 DUP7 PUSH1 0x40 MLOAD PUSH2 0x318 SWAP4 SWAP3 SWAP2 SWAP1 PUSH2 0xC03 JUMP JUMPDEST PUSH1 0x40 MLOAD DUP1 SWAP2 SUB SWAP1 LOG2 POP POP POP POP POP JUMP JUMPDEST PUSH1 0x0 DUP1 PUSH1 0x0 DUP4 DUP2 MSTORE PUSH1 0x20 ADD SWAP1 DUP2 MSTORE PUSH1 0x20 ADD PUSH1 0x0 KECCAK256 DUP1 SLOAD SWAP1 POP SWAP1 POP SWAP2 SWAP1 POP JUMP JUMPDEST PUSH1 0x0 PUSH1 0x60 PUSH1 0x0 DUP1 PUSH1 0x0 DUP7 DUP2 MSTORE PUSH1 0x20 ADD SWAP1 DUP2 MSTORE PUSH1 0x20 ADD PUSH1 0x0 KECCAK256 DUP5 DUP2 SLOAD DUP2 LT PUSH2 0x370 JUMPI PUSH2 0x36F PUSH2 0xC35 JUMP JUMPDEST JUMPDEST SWAP1 PUSH1 0x0 MSTORE PUSH1 0x20 PUSH1 0x0 KECCAK256 SWAP1 PUSH1 0x2 MUL ADD SWAP1 POP DUP1 PUSH1 0x0 ADD SLOAD DUP2 PUSH1 0x1 ADD DUP1 DUP1 SLOAD PUSH2 0x395 SWAP1 PUSH2 0x826 JUMP JUMPDEST DUP1 PUSH1 0x1F ADD PUSH1 0x20 DUP1 SWAP2 DIV MUL PUSH1 0x20 ADD PUSH1 0x40 MLOAD SWAP1 DUP2 ADD PUSH1 0x40 MSTORE DUP1 SWAP3 SWAP2 SWAP1 DUP2 DUP2 MSTORE PUSH1 0x20 ADD DUP3 DUP1 SLOAD PUSH2 0x3C1 SWAP1 PUSH2 0x826 JUMP JUMPDEST DUP1 ISZERO PUSH2 0x40E JUMPI DUP1 PUSH1 0x1F LT PUSH2 0x3E3 JUMPI PUSH2 0x100 DUP1 DUP4 SLOAD DIV MUL DUP4 MSTORE SWAP2 PUSH1 0x20 ADD SWAP2 PUSH2 0x40E JUMP JUMPDEST DUP3 ADD SWAP2 SWAP1 PUSH1 0x0 MSTORE PUSH1 0x20 PUSH1 0x0 KECCAK256 SWAP1 JUMPDEST DUP2 SLOAD DUP2 MSTORE SWAP1 PUSH1 0x1 ADD SWAP1 PUSH1 0x20 ADD DUP1 DUP4 GT PUSH2 0x3F1 JUMPI DUP3 SWAP1 SUB PUSH1 0x1F AND DUP3 ADD SWAP2 JUMPDEST POP POP POP POP POP SWAP1 POP SWAP3 POP SWAP3 POP POP SWAP3 POP SWAP3 SWAP1 POP JUMP JUMPDEST PUSH1 0x0 DUP1 REVERT JUMPDEST PUSH1 0x0 DUP1 REVERT JUMPDEST PUSH1 0x0 DUP2 SWAP1 POP SWAP2 SWAP1 POP JUMP JUMPDEST PUSH2 0x43E DUP2 PUSH2 0x42B JUMP JUMPDEST DUP2 EQ PUSH2 0x449 JUMPI PUSH1 0x0 DUP1 REVERT JUMPDEST POP JUMP JUMPDEST PUSH1 0x0 DUP2 CALLDATALOAD SWAP1 POP PUSH2 0x45B DUP2 PUSH2 0x435 JUMP JUMPDEST SWAP3 SWAP2 POP POP JUMP JUMPDEST PUSH1 0x0 PUSH1 0x20 DUP3 DUP5 SUB SLT ISZERO PUSH2 0x477 JUMPI PUSH2 0x476 PUSH2 0x421 JUMP JUMPDEST JUMPDEST PUSH1 0x0 PUSH2 0x485 DUP5 DUP3 DUP6 ADD PUSH2 0x44C JUMP JUMPDEST SWAP2 POP POP SWAP3 SWAP2 POP POP JUMP JUMPDEST PUSH1 0x0 DUP2 MLOAD SWAP1 POP SWAP2 SWAP1 POP JUMP JUMPDEST PUSH1 0x0 DUP3 DUP3 MSTORE PUSH1 0x20 DUP3 ADD SWAP1 POP SWAP3 SWAP2 POP POP JUMP JUMPDEST PUSH1 0x0 DUP2 SWAP1 POP PUSH1 0x20 DUP3 ADD SWAP1 POP SWAP2 SWAP1 POP JUMP JUMPDEST PUSH2 0x4C3 DUP2 PUSH2 0x42B JUMP JUMPDEST DUP3 MSTORE POP POP JUMP JUMPDEST PUSH1 0x0 DUP2 MLOAD SWAP1 POP SWAP2 SWAP1 POP JUMP JUMPDEST PUSH1 0x0 DUP3 DUP3 MSTORE PUSH1 0x20 DUP3 ADD SWAP1 POP SWAP3 SWAP2 POP POP JUMP JUMPDEST PUSH1 0x0 JUMPDEST DUP4 DUP2 LT ISZERO PUSH2 0x503 JUMPI DUP1 DUP3 ADD MLOAD DUP2 DUP5 ADD MSTORE PUSH1 0x20 DUP2 ADD SWAP1 POP PUSH2 0x4E8 JUMP JUMPDEST PUSH1 0x0 DUP5 DUP5 ADD MSTORE POP POP POP POP JUMP JUMPDEST PUSH1 0x0 PUSH1 0x1F NOT PUSH1 0x1F DUP4 ADD AND SWAP1 POP SWAP2 SWAP1 POP JUMP JUMPDEST PUSH1 0x0 PUSH2 0x52B DUP3 PUSH2 0x4C9 JUMP JUMPDEST PUSH2 0x535 DUP2 DUP6 PUSH2 0x4D4 JUMP JUMPDEST SWAP4 POP PUSH2 0x545 DUP2 DUP6 PUSH1 0x20 DUP7 ADD PUSH2 0x4E5 JUMP JUMPDEST PUSH2 0x54E DUP2 PUSH2 0x50F JUMP JUMPDEST DUP5 ADD SWAP2 POP POP SWAP3 SWAP2 POP POP JUMP JUMPDEST PUSH1 0x0 PUSH1 0x40 DUP4 ADD PUSH1 0x0 DUP4 ADD MLOAD PUSH2 0x571 PUSH1 0x0 DUP7 ADD DUP3 PUSH2 0x4BA JUMP JUMPDEST POP PUSH1 0x20 DUP4 ADD MLOAD DUP5 DUP3 SUB PUSH1 0x20 DUP7 ADD MSTORE PUSH2 0x589 DUP3 DUP3 PUSH2 0x520 JUMP JUMPDEST SWAP2 POP POP DUP1 SWAP2 POP POP SWAP3 SWAP2 POP POP JUMP JUMPDEST PUSH1 0x0 PUSH2 0x5A2 DUP4 DUP4 PUSH2 0x559 JUMP JUMPDEST SWAP1 POP SWAP3 SWAP2 POP POP JUMP JUMPDEST PUSH1 0x0 PUSH1 0x20 DUP3 ADD SWAP1 POP SWAP2 SWAP1 POP JUMP JUMPDEST PUSH1 0x0 PUSH2 0x5C2 DUP3 PUSH2 0x48E JUMP JUMPDEST PUSH2 0x5CC DUP2 DUP6 PUSH2 0x499 JUMP JUMPDEST SWAP4 POP DUP4 PUSH1 0x20 DUP3 MUL DUP6 ADD PUSH2 0x5DE DUP6 PUSH2 0x4AA JUMP JUMPDEST DUP1 PUSH1 0x0 JUMPDEST DUP6 DUP2 LT ISZERO PUSH2 0x61A JUMPI DUP5 DUP5 SUB DUP10 MSTORE DUP2 MLOAD PUSH2 0x5FB DUP6 DUP3 PUSH2 0x596 JUMP JUMPDEST SWAP5 POP PUSH2 0x606 DUP4 PUSH2 0x5AA JUMP JUMPDEST SWAP3 POP PUSH1 0x20 DUP11 ADD SWAP10 POP POP PUSH1 0x1 DUP2 ADD SWAP1 POP PUSH2 0x5E2 JUMP JUMPDEST POP DUP3 SWAP8 POP DUP8 SWAP6 POP POP POP POP POP POP SWAP3 SWAP2 POP POP JUMP JUMPDEST PUSH1 0x0 PUSH1 0x20 DUP3 ADD SWAP1 POP DUP2 DUP2 SUB PUSH1 0x0 DUP4 ADD MSTORE PUSH2 0x646 DUP2 DUP5 PUSH2 0x5B7 JUMP JUMPDEST SWAP1 POP SWAP3 SWAP2 POP POP JUMP JUMPDEST PUSH1 0x0 DUP1 REVERT JUMPDEST PUSH1 0x0 DUP1 REVERT JUMPDEST PUSH1 0x0 DUP1 REVERT JUMPDEST PUSH1 0x0 DUP1 DUP4 PUSH1 0x1F DUP5 ADD SLT PUSH2 0x673 JUMPI PUSH2 0x672 PUSH2 0x64E JUMP JUMPDEST JUMPDEST DUP3 CALLDATALOAD SWAP1 POP PUSH8 0xFFFFFFFFFFFFFFFF DUP2 GT ISZERO PUSH2 0x690 JUMPI PUSH2 0x68F PUSH2 0x653 JUMP JUMPDEST JUMPDEST PUSH1 0x20 DUP4 ADD SWAP2 POP DUP4 PUSH1 0x1 DUP3 MUL DUP4 ADD GT ISZERO PUSH2 0x6AC JUMPI PUSH2 0x6AB PUSH2 0x658 JUMP JUMPDEST JUMPDEST SWAP3 POP SWAP3 SWAP1 POP JUMP JUMPDEST PUSH1 0x0 DUP1 PUSH1 0x0 PUSH1 0x40 DUP5 DUP7 SUB SLT ISZERO PUSH2 0x6CC JUMPI PUSH2 0x6CB PUSH2 0x421 JUMP JUMPDEST JUMPDEST PUSH1 0x0 PUSH2 0x6DA DUP7 DUP3 DUP8 ADD PUSH2 0x44C JUMP JUMPDEST SWAP4 POP POP PUSH1 0x20 DUP5 ADD CALLDATALOAD PUSH8 0xFFFFFFFFFFFFFFFF DUP2 GT ISZERO PUSH2 0x6FB JUMPI PUSH2 0x6FA PUSH2 0x426 JUMP JUMPDEST JUMPDEST PUSH2 0x707 DUP7 DUP3 DUP8 ADD PUSH2 0x65D JUMP JUMPDEST SWAP3 POP SWAP3 POP POP SWAP3 POP SWAP3 POP SWAP3 JUMP JUMPDEST PUSH2 0x71C DUP2 PUSH2 0x42B JUMP JUMPDEST DUP3 MSTORE POP POP JUMP JUMPDEST PUSH1 0x0 PUSH1 0x20 DUP3 ADD SWAP1 POP PUSH2 0x737 PUSH1 0x0 DUP4 ADD DUP5 PUSH2 0x713 JUMP JUMPDEST SWAP3 SWAP2 POP POP JUMP JUMPDEST PUSH1 0x0 DUP1 PUSH1 0x40 DUP4 DUP6 SUB SLT ISZERO PUSH2 0x754 JUMPI PUSH2 0x753 PUSH2 0x421 JUMP JUMPDEST JUMPDEST PUSH1 0x0 PUSH2 0x762 DUP6 DUP3 DUP7 ADD PUSH2 0x44C JUMP JUMPDEST SWAP3 POP POP PUSH1 0x20 PUSH2 0x773 DUP6 DUP3 DUP7 ADD PUSH2 0x44C JUMP JUMPDEST SWAP2 POP POP SWAP3 POP SWAP3 SWAP1 POP JUMP JUMPDEST PUSH1 0x0 DUP3 DUP3 MSTORE PUSH1 0x20 DUP3 ADD SWAP1 POP SWAP3 SWAP2 POP POP JUMP JUMPDEST PUSH1 0x0 PUSH2 0x799 DUP3 PUSH2 0x4C9 JUMP JUMPDEST PUSH2 0x7A3 DUP2 DUP6 PUSH2 0x77D JUMP JUMPDEST SWAP4 POP PUSH2 0x7B3 DUP2 DUP6 PUSH1 0x20 DUP7 ADD PUSH2 0x4E5 JUMP JUMPDEST PUSH2 0x7BC DUP2 PUSH2 0x50F JUMP JUMPDEST DUP5 ADD SWAP2 POP POP SWAP3 SWAP2 POP POP JUMP JUMPDEST PUSH1 0x0 PUSH1 0x40 DUP3 ADD SWAP1 POP PUSH2 0x7DC PUSH1 0x0 DUP4 ADD DUP6 PUSH2 0x713 JUMP JUMPDEST DUP2 DUP2 SUB PUSH1 0x20 DUP4 ADD MSTORE PUSH2 0x7EE DUP2 DUP5 PUSH2 0x78E JUMP JUMPDEST SWAP1 POP SWAP4 SWAP3 POP POP POP JUMP JUMPDEST PUSH32 0x4E487B7100000000000000000000000000000000000000000000000000000000 PUSH1 0x0 MSTORE PUSH1 0x22 PUSH1 0x4 MSTORE PUSH1 0x24 PUSH1 0x0 REVERT JUMPDEST PUSH1 0x0 PUSH1 0x2 DUP3 DIV SWAP1 POP PUSH1 0x1 DUP3 AND DUP1 PUSH2 0x83E JUMPI PUSH1 0x7F DUP3 AND SWAP2 POP JUMPDEST PUSH1 0x20 DUP3 LT DUP2 SUB PUSH2 0x851 JUMPI PUSH2 0x850 PUSH2 0x7F7 JUMP JUMPDEST JUMPDEST POP SWAP2 SWAP1 POP JUMP JUMPDEST PUSH32 0x4E487B7100000000000000000000000000000000000000000000000000000000 PUSH1 0x0 MSTORE PUSH1 0x12 PUSH1 0x4 MSTORE PUSH1 0x24 PUSH1 0x0 REVERT JUMPDEST PUSH1 0x0 PUSH2 0x891 DUP3 PUSH2 0x42B JUMP JUMPDEST SWAP2 POP PUSH2 0x89C DUP4 PUSH2 0x42B JUMP JUMPDEST SWAP3 POP DUP3 PUSH2 0x8AC JUMPI PUSH2 0x8AB PUSH2 0x857 JUMP JUMPDEST JUMPDEST DUP3 DUP3 MOD SWAP1 POP SWAP3 SWAP2 POP POP JUMP JUMPDEST PUSH32 0x4E487B7100000000000000000000000000000000000000000000000000000000 PUSH1 0x0 MSTORE PUSH1 0x11 PUSH1 0x4 MSTORE PUSH1 0x24 PUSH1 0x0 REVERT JUMPDEST PUSH1 0x0 PUSH2 0x8F1 DUP3 PUSH2 0x42B JUMP JUMPDEST SWAP2 POP PUSH2 0x8FC DUP4 PUSH2 0x42B JUMP JUMPDEST SWAP3 POP DUP3 DUP3 SUB SWAP1 POP DUP2 DUP2 GT ISZERO PUSH2 0x914 JUMPI PUSH2 0x913 PUSH2 0x8B7 JUMP JUMPDEST JUMPDEST SWAP3 SWAP2 POP POP JUMP JUMPDEST PUSH32 0x4E487B7100000000000000000000000000000000000000000000000000000000 PUSH1 0x0 MSTORE PUSH1 0x41 PUSH1 0x4 MSTORE PUSH1 0x24 PUSH1 0x0 REVERT JUMPDEST PUSH1 0x0 DUP2 SWAP1 POP DUP2 PUSH1 0x0 MSTORE PUSH1 0x20 PUSH1 0x0 KECCAK256 SWAP1 POP SWAP2 SWAP1 POP JUMP JUMPDEST PUSH1 0x0 PUSH1 0x20 PUSH1 0x1F DUP4 ADD DIV SWAP1 POP SWAP2 SWAP1 POP JUMP JUMPDEST PUSH1 0x0 DUP3 DUP3 SHL SWAP1 POP SWAP3 SWAP2 POP POP JUMP JUMPDEST PUSH1 0x0 PUSH1 0x8 DUP4 MUL PUSH2 0x9AB PUSH32 0xFFFFFFFFFFFFFFFFFFFFFFFFFFFFFFFFFFFFFFFFFFFFFFFFFFFFFFFFFFFFFFFF DUP3 PUSH2 0x96E JUMP JUMPDEST PUSH2 0x9B5 DUP7 DUP4 PUSH2 0x96E JUMP JUMPDEST SWAP6 POP DUP1 NOT DUP5 AND SWAP4 POP DUP1 DUP7 AND DUP5 OR SWAP3 POP POP POP SWAP4 SWAP3 POP POP POP JUMP JUMPDEST PUSH1 0x0 DUP2 SWAP1 POP SWAP2 SWAP1 POP JUMP JUMPDEST PUSH1 0x0 PUSH2 0x9F2 PUSH2 0x9ED PUSH2 0x9E8 DUP5 PUSH2 0x42B JUMP JUMPDEST PUSH2 0x9CD JUMP JUMPDEST PUSH2 0x42B JUMP JUMPDEST SWAP1 POP SWAP2 SWAP1 POP JUMP JUMPDEST PUSH1 0x0 DUP2 SWAP1 POP SWAP2 SWAP1 POP JUMP JUMPDEST PUSH2 0xA0C DUP4 PUSH2 0x9D7 JUMP JUMPDEST PUSH2 0xA20 PUSH2 0xA18 DUP3 PUSH2 0x9F9 JUMP JUMPDEST DUP5 DUP5 SLOAD PUSH2 0x97B JUMP JUMPDEST DUP3 SSTORE POP POP POP POP JUMP JUMPDEST PUSH1 0x0 SWAP1 JUMP JUMPDEST PUSH2 0xA35 PUSH2 0xA28 JUMP JUMPDEST PUSH2 0xA40 DUP2 DUP5 DUP5 PUSH2 0xA03 JUMP JUMPDEST POP POP POP JUMP JUMPDEST JUMPDEST DUP2 DUP2 LT ISZERO PUSH2 0xA64 JUMPI PUSH2 0xA59 PUSH1 0x0 DUP3 PUSH2 0xA2D JUMP JUMPDEST PUSH1 0x1 DUP2 ADD SWAP1 POP PUSH2 0xA46 JUMP JUMPDEST POP POP JUMP JUMPDEST PUSH1 0x1F DUP3 GT ISZERO PUSH2 0xAA9 JUMPI PUSH2 0xA7A DUP2 PUSH2 0x949 JUMP JUMPDEST PUSH2 0xA83 DUP5 PUSH2 0x95E JUMP JUMPDEST DUP2 ADD PUSH1 0x20 DUP6 LT ISZERO PUSH2 0xA92 JUMPI DUP2 SWAP1 POP JUMPDEST PUSH2 0xAA6 PUSH2 0xA9E DUP6 PUSH2 0x95E JUMP JUMPDEST DUP4 ADD DUP3 PUSH2 0xA45 JUMP JUMPDEST POP POP JUMPDEST POP POP POP JUMP JUMPDEST PUSH1 0x0 DUP3 DUP3 SHR SWAP1 POP SWAP3 SWAP2 POP POP JUMP JUMPDEST PUSH1 0x0 PUSH2 0xACC PUSH1 0x0 NOT DUP5 PUSH1 0x8 MUL PUSH2 0xAAE JUMP JUMPDEST NOT DUP1 DUP4 AND SWAP2 POP POP SWAP3 SWAP2 POP POP JUMP JUMPDEST PUSH1 0x0 PUSH2 0xAE5 DUP4 DUP4 PUSH2 0xABB JUMP JUMPDEST SWAP2 POP DUP3 PUSH1 0x2 MUL DUP3 OR SWAP1 POP SWAP3 SWAP2 POP POP JUMP JUMPDEST PUSH2 0xAFE DUP3 PUSH2 0x4C9 JUMP JUMPDEST PUSH8 0xFFFFFFFFFFFFFFFF DUP2 GT ISZERO PUSH2 0xB17 JUMPI PUSH2 0xB16 PUSH2 0x91A JUMP JUMPDEST JUMPDEST PUSH2 0xB21 DUP3 SLOAD PUSH2 0x826 JUMP JUMPDEST PUSH2 0xB2C DUP3 DUP3 DUP6 PUSH2 0xA68 JUMP JUMPDEST PUSH1 0x0 PUSH1 0x20 SWAP1 POP PUSH1 0x1F DUP4 GT PUSH1 0x1 DUP2 EQ PUSH2 0xB5F JUMPI PUSH1 0x0 DUP5 ISZERO PUSH2 0xB4D JUMPI DUP3 DUP8 ADD MLOAD SWAP1 POP JUMPDEST PUSH2 0xB57 DUP6 DUP3 PUSH2 0xAD9 JUMP JUMPDEST DUP7 SSTORE POP PUSH2 0xBBF JUMP JUMPDEST PUSH1 0x1F NOT DUP5 AND PUSH2 0xB6D DUP7 PUSH2 0x949 JUMP JUMPDEST PUSH1 0x0 JUMPDEST DUP3 DUP2 LT ISZERO PUSH2 0xB95 JUMPI DUP5 DUP10 ADD MLOAD DUP3 SSTORE PUSH1 0x1 DUP3 ADD SWAP2 POP PUSH1 0x20 DUP6 ADD SWAP5 POP PUSH1 0x20 DUP2 ADD SWAP1 POP PUSH2 0xB70 JUMP JUMPDEST DUP7 DUP4 LT ISZERO PUSH2 0xBB2 JUMPI DUP5 DUP10 ADD MLOAD PUSH2 0xBAE PUSH1 0x1F DUP10 AND DUP3 PUSH2 0xABB JUMP JUMPDEST DUP4 SSTORE POP JUMPDEST PUSH1 0x1 PUSH1 0x2 DUP9 MUL ADD DUP9 SSTORE POP POP POP JUMPDEST POP POP POP POP POP POP JUMP JUMPDEST DUP3 DUP2 DUP4 CALLDATACOPY PUSH1 0x0 DUP4 DUP4 ADD MSTORE POP POP POP JUMP JUMPDEST PUSH1 0x0 PUSH2 0xBE2 DUP4 DUP6 PUSH2 0x77D JUMP JUMPDEST SWAP4 POP PUSH2 0xBEF DUP4 DUP6 DUP5 PUSH2 0xBC7 JUMP JUMPDEST PUSH2 0xBF8 DUP4 PUSH2 0x50F JUMP JUMPDEST DUP5 ADD SWAP1 POP SWAP4 SWAP3 POP POP POP JUMP JUMPDEST PUSH1 0x0 PUSH1 0x40 DUP3 ADD SWAP1 POP PUSH2 0xC18 PUSH1 0x0 DUP4 ADD DUP7 PUSH2 0x713 JUMP JUMPDEST DUP2 DUP2 SUB PUSH1 0x20 DUP4 ADD MSTORE PUSH2 0xC2B DUP2 DUP5 DUP7 PUSH2 0xBD6 JUMP JUMPDEST SWAP1 POP SWAP5 SWAP4 POP POP POP POP JUMP JUMPDEST PUSH32 0x4E487B7100000000000000000000000000000000000000000000000000000000 PUSH1 0x0 MSTORE PUSH1 0x32 PUSH1 0x4 MSTORE PUSH1 0x24 PUSH1 0x0 REVERT INVALID LOG2 PUSH5 0x6970667358 0x22 SLT KECCAK256 PUSH8 0x32EDD9DD6F0F1033 SLT LT CALLDATALOAD SLT NOT XOR ADDMOD JUMP 0xBC 0xDB SHR SDIV 0xE6 0x4B 0xCB SELFDESTRUCT LOG3 0xBA 0xE1 0xE2 0x1F 0xEA JUMPI PUSH5 0x736F6C6343 STOP ADDMOD SLT STOP CALLER "},"methodIdentifiers":{"getAllSensorBatchesForDay(uint256)":"27c3afd6","getBatchCount(uint256)":"ce4c433b","getSensorBatch(uint256,uint256)":"de46af71","receiveSensorBatch(uint256,string)":"8a0e85e3"}}}}}