{
  "_format": "hh-sol-artifact-1",
  "contractName": "SensorDataBatch",
  "sourceName": "contracts/SensorDataBatch.sol",
  "abi": [
    {
      "anonymous": false,
      "inputs": [
        {
          "indexed": true,
          "internalType": "uint256",
          "name": "dateKey",
          "type": "uint256"
        },
        {
          "indexed": false,
          "internalType": "uint256",
          "name": "timestamp",
          "type": "uint256"
        },
        {
          "indexed": false,
          "internalType": "string",
          "name": "hexData",
          "type": "string"
        }
      ],
      "name": "SensorBatchReceived",
      "type": "event"
    },
    {
      "inputs": [
        {
          "internalType": "uint256",
          "name": "dateKey",
          "type": "uint256"
        }
      ],
      "name": "getAllSensorBatchesForDay",
      "outputs": [
        {
          "components": [
            {
              "internalType": "uint256",
              "name": "timestamp",
              "type": "uint256"
            },
            {
              "internalType": "string",
              "name": "hexData",
              "type": "string"
            }
          ],
          "internalType": "struct SensorDataBatch.SensorBatch[]",
          "name": "",
          "type": "tuple[]"
        }
      ],
      "stateMutability": "view",
      "type": "function"
    },
    {
      "inputs": [
        {
          "internalType": "uint256",
          "name": "dateKey",
          "type": "uint256"
        }
      ],
      "name": "getBatchCount",
      "outputs": [
        {
          "internalType": "uint256",
          "name": "",
          "type": "uint256"
        }
      ],
      "stateMutability": "view",
      "type": "function"
    },
    {
      "inputs": [
        {
          "internalType": "uint256",
          "name": "dateKey",
          "type": "uint256"
        },
        {
          "internalType": "uint256",
          "name": "index",
          "type": "uint256"
        }
      ],
      "name": "getSensorBatch",
      "outputs": [
        {
          "internalType": "uint256",
          "name": "",
          "type": "uint256"
        },
        {
          "internalType": "string",
          "name": "",
          "type": "string"
        }
      ],
      "stateMutability": "view",
      "type": "function"
    },
    {
      "inputs": [
        {
          "internalType": "uint256",
          "name": "timestamp",
          "type": "uint256"
        },
        {
          "internalType": "string",
          "name": "hexData",
          "type": "string"
        }
      ],
      "name": "receiveSensorBatch",
      "outputs": [],
      "stateMutability": "nonpayable",
      "type": "function"
    }
  ],
  "bytecode": "0x608060405234801561001057600080fd5b50610c9a806100206000396000f3fe608060405234801561001057600080fd5b506004361061004c5760003560e01c806327c3afd6146100515780638a0e85e314610081578063ce4c433b1461009d578063de46af71146100cd575b600080fd5b61006b60048036038101906100669190610461565b6100fe565b604051610078919061062c565b60405180910390f35b61009b600480360381019061009691906106b3565b61020b565b005b6100b760048036038101906100b29190610461565b610327565b6040516100c49190610722565b60405180910390f35b6100e760048036038101906100e2919061073d565b610346565b6040516100f59291906107c7565b60405180910390f35b6060600080838152602001908152602001600020805480602002602001604051908101604052809291908181526020016000905b8282101561020057838290600052602060002090600202016040518060400160405290816000820154815260200160018201805461016f90610826565b80601f016020809104026020016040519081016040528092919081815260200182805461019b90610826565b80156101e85780601f106101bd576101008083540402835291602001916101e8565b820191906000526020600020905b8154815290600101906020018083116101cb57829003601f168201915b50505050508152505081526020019060010190610132565b505050509050919050565b6000620151808461021c9190610886565b8461022791906108e6565b90506000604051806040016040528086815260200185858080601f016020809104026020016040519081016040528093929190818152602001838380828437600081840152601f19601f8201169050808301925050505050505081525090506000808381526020019081526020016000208190806001815401808255809150506001900390600052602060002090600202016000909190919091506000820151816000015560208201518160010190816102e19190610af5565b505050817f96c17ce4db411bf999e051880b4d8562eec9fa91282dc641b6bea7c2b252125a86868660405161031893929190610c03565b60405180910390a25050505050565b6000806000838152602001908152602001600020805490509050919050565b60006060600080600086815260200190815260200160002084815481106103705761036f610c35565b5b9060005260206000209060020201905080600001548160010180805461039590610826565b80601f01602080910402602001604051908101604052809291908181526020018280546103c190610826565b801561040e5780601f106103e35761010080835404028352916020019161040e565b820191906000526020600020905b8154815290600101906020018083116103f157829003601f168201915b5050505050905092509250509250929050565b600080fd5b600080fd5b6000819050919050565b61043e8161042b565b811461044957600080fd5b50565b60008135905061045b81610435565b92915050565b60006020828403121561047757610476610421565b5b60006104858482850161044c565b91505092915050565b600081519050919050565b600082825260208201905092915050565b6000819050602082019050919050565b6104c38161042b565b82525050565b600081519050919050565b600082825260208201905092915050565b60005b838110156105035780820151818401526020810190506104e8565b60008484015250505050565b6000601f19601f8301169050919050565b600061052b826104c9565b61053581856104d4565b93506105458185602086016104e5565b61054e8161050f565b840191505092915050565b600060408301600083015161057160008601826104ba565b50602083015184820360208601526105898282610520565b9150508091505092915050565b60006105a28383610559565b905092915050565b6000602082019050919050565b60006105c28261048e565b6105cc8185610499565b9350836020820285016105de856104aa565b8060005b8581101561061a57848403895281516105fb8582610596565b9450610606836105aa565b925060208a019950506001810190506105e2565b50829750879550505050505092915050565b6000602082019050818103600083015261064681846105b7565b905092915050565b600080fd5b600080fd5b600080fd5b60008083601f8401126106735761067261064e565b5b8235905067ffffffffffffffff8111156106905761068f610653565b5b6020830191508360018202830111156106ac576106ab610658565b5b9250929050565b6000806000604084860312156106cc576106cb610421565b5b60006106da8682870161044c565b935050602084013567ffffffffffffffff8111156106fb576106fa610426565b5b6107078682870161065d565b92509250509250925092565b61071c8161042b565b82525050565b60006020820190506107376000830184610713565b92915050565b6000806040838503121561075457610753610421565b5b60006107628582860161044c565b92505060206107738582860161044c565b9150509250929050565b600082825260208201905092915050565b6000610799826104c9565b6107a3818561077d565b93506107b38185602086016104e5565b6107bc8161050f565b840191505092915050565b60006040820190506107dc6000830185610713565b81810360208301526107ee818461078e565b90509392505050565b7f4e487b7100000000000000000000000000000000000000000000000000000000600052602260045260246000fd5b6000600282049050600182168061083e57607f821691505b602082108103610851576108506107f7565b5b50919050565b7f4e487b7100000000000000000000000000000000000000000000000000000000600052601260045260246000fd5b60006108918261042b565b915061089c8361042b565b9250826108ac576108ab610857565b5b828206905092915050565b7f4e487b7100000000000000000000000000000000000000000000000000000000600052601160045260246000fd5b60006108f18261042b565b91506108fc8361042b565b9250828203905081811115610914576109136108b7565b5b92915050565b7f4e487b7100000000000000000000000000000000000000000000000000000000600052604160045260246000fd5b60008190508160005260206000209050919050565b60006020601f8301049050919050565b600082821b905092915050565b6000600883026109ab7fffffffffffffffffffffffffffffffffffffffffffffffffffffffffffffffff8261096e565b6109b5868361096e565b95508019841693508086168417925050509392505050565b6000819050919050565b60006109f26109ed6109e88461042b565b6109cd565b61042b565b9050919050565b6000819050919050565b610a0c836109d7565b610a20610a18826109f9565b84845461097b565b825550505050565b600090565b610a35610a28565b610a40818484610a03565b505050565b5b81811015610a6457610a59600082610a2d565b600181019050610a46565b5050565b601f821115610aa957610a7a81610949565b610a838461095e565b81016020851015610a92578190505b610aa6610a9e8561095e565b830182610a45565b50505b505050565b600082821c905092915050565b6000610acc60001984600802610aae565b1980831691505092915050565b6000610ae58383610abb565b9150826002028217905092915050565b610afe826104c9565b67ffffffffffffffff811115610b1757610b1661091a565b5b610b218254610826565b610b2c828285610a68565b600060209050601f831160018114610b5f5760008415610b4d578287015190505b610b578582610ad9565b865550610bbf565b601f198416610b6d86610949565b60005b82811015610b9557848901518255600182019150602085019450602081019050610b70565b86831015610bb25784890151610bae601f891682610abb565b8355505b6001600288020188555050505b505050505050565b82818337600083830152505050565b6000610be2838561077d565b9350610bef838584610bc7565b610bf88361050f565b840190509392505050565b6000604082019050610c186000830186610713565b8181036020830152610c2b818486610bd6565b9050949350505050565b7f4e487b7100000000000000000000000000000000000000000000000000000000600052603260045260246000fdfea26469706673582212206732edd9dd6f0f10331210351219180856bcdb1c05e64bcbffa3bae1e21fea5764736f6c63430008120033",
  "linkReferences": {},
  "deployedLinkReferences": {}
}