{
  "_format": "hh-sol-artifact-1",
  "contractName": "SensorDataBatch",
  "sourceName": "contracts/SensorDataBatch.sol",
  "abi": [
    {
      "anonymous": false,
      "inputs": [
        {
          "indexed": false,
          "internalType": "string",
          "name": "vehicleId",
          "type": "string"
        },
        {
          "indexed": false,
          "internalType": "uint256",
          "name": "dateKey",
          "type": "uint256"
        },
        {
          "indexed": false,
          "internalType": "uint256",
          "name": "timestamp",
          "type": "uint256"
        },
        {
          "indexed": false,
          "internalType": "string",
          "name": "hexData",
          "type": "string"
        }
      ],
      "name": "SensorBatchReceived",
      "type": "event"
    },
    {
      "inputs": [
        {
          "internalType": "string",
          "name": "vehicleId",
          "type": "string"
        },
        {
          "internalType": "uint256",
          "name": "dateKey",
          "type": "uint256"
        }
      ],
      "name": "getAllSensorBatchesForDay",
      "outputs": [
        {
          "components": [
            {
              "internalType": "uint256",
              "name": "timestamp",
              "type": "uint256"
            },
            {
              "internalType": "string",
              "name": "hexData",
              "type": "string"
            }
          ],
          "internalType": "struct SensorDataBatch.SensorBatch[]",
          "name": "",
          "type": "tuple[]"
        }
      ],
      "stateMutability": "view",
      "type": "function"
    },
    {
      "inputs": [
        {
          "internalType": "string",
          "name": "vehicleId",
          "type": "string"
        },
        {
          "internalType": "uint256",
          "name": "dateKey",
          "type": "uint256"
        }
      ],
      "name": "getBatchCount",
      "outputs": [
        {
          "internalType": "uint256",
          "name": "",
          "type": "uint256"
        }
      ],
      "stateMutability": "view",
      "type": "function"
    },
    {
      "inputs": [
        {
          "internalType": "string",
          "name": "vehicleId",
          "type": "string"
        },
        {
          "internalType": "uint256",
          "name": "dateKey",
          "type": "uint256"
        },
        {
          "internalType": "uint256",
          "name": "index",
          "type": "uint256"
        }
      ],
      "name": "getSensorBatch",
      "outputs": [
        {
          "internalType": "uint256",
          "name": "",
          "type": "uint256"
        },
        {
          "internalType": "string",
          "name": "",
          "type": "string"
        }
      ],
      "stateMutability": "view",
      "type": "function"
    },
    {
      "inputs": [
        {
          "internalType": "string",
          "name": "vehicleId",
          "type": "string"
        },
        {
          "internalType": "uint256",
          "name": "timestamp",
          "type": "uint256"
        },
        {
          "internalType": "string",
          "name": "hexData",
          "type": "string"
        }
      ],
      "name": "receiveSensorBatch",
      "outputs": [],
      "stateMutability": "nonpayable",
      "type": "function"
    }
  ],
  "bytecode": "0x608060405234801561001057600080fd5b50610e2b806100206000396000f3fe608060405234801561001057600080fd5b506004361061004c5760003560e01c806336eddf3b1461005157806350d0565c146100815780635561a2aa146100b2578063fa718656146100e2575b600080fd5b61006b6004803603810190610066919061054d565b6100fe565b604051610078919061074b565b60405180910390f35b61009b6004803603810190610096919061076d565b61022c565b6040516100a992919061083a565b60405180910390f35b6100cc60048036038101906100c7919061054d565b610327565b6040516100d9919061086a565b60405180910390f35b6100fc60048036038101906100f79190610885565b610366565b005b606060008484604051610112929190610959565b90815260200160405180910390206000838152602001908152602001600020805480602002602001604051908101604052809291908181526020016000905b8282101561021f57838290600052602060002090600202016040518060400160405290816000820154815260200160018201805461018e906109a1565b80601f01602080910402602001604051908101604052809291908181526020018280546101ba906109a1565b80156102075780601f106101dc57610100808354040283529160200191610207565b820191906000526020600020905b8154815290600101906020018083116101ea57829003601f168201915b50505050508152505081526020019060010190610151565b5050505090509392505050565b600060606000808787604051610243929190610959565b908152602001604051809103902060008681526020019081526020016000208481548110610274576102736109d2565b5b90600052602060002090600202019050806000015481600101808054610299906109a1565b80601f01602080910402602001604051908101604052809291908181526020018280546102c5906109a1565b80156103125780601f106102e757610100808354040283529160200191610312565b820191906000526020600020905b8154815290600101906020018083116102f557829003601f168201915b50505050509050925092505094509492505050565b600080848460405161033a929190610959565b908152602001604051809103902060008381526020019081526020016000208054905090509392505050565b600062015180846103779190610a30565b846103829190610a90565b90506000604051806040016040528086815260200185858080601f016020809104026020016040519081016040528093929190818152602001838380828437600081840152601f19601f820116905080830192505050505050508152509050600087876040516103f3929190610959565b9081526020016040518091039020600083815260200190815260200160002081908060018154018082558091505060019003906000526020600020906002020160009091909190915060008201518160000155602082015181600101908161045b9190610c9f565b5050507f073d30c5dfb14446d49d6b924e227133bcab01d70dde457ec47c522d948569cd87878488888860405161049796959493929190610d9e565b60405180910390a150505050505050565b600080fd5b600080fd5b600080fd5b600080fd5b600080fd5b60008083601f8401126104d7576104d66104b2565b5b8235905067ffffffffffffffff8111156104f4576104f36104b7565b5b6020830191508360018202830111156105105761050f6104bc565b5b9250929050565b6000819050919050565b61052a81610517565b811461053557600080fd5b50565b60008135905061054781610521565b92915050565b600080600060408486031215610566576105656104a8565b5b600084013567ffffffffffffffff811115610584576105836104ad565b5b610590868287016104c1565b935093505060206105a386828701610538565b9150509250925092565b600081519050919050565b600082825260208201905092915050565b6000819050602082019050919050565b6105e281610517565b82525050565b600081519050919050565b600082825260208201905092915050565b60005b83811015610622578082015181840152602081019050610607565b60008484015250505050565b6000601f19601f8301169050919050565b600061064a826105e8565b61065481856105f3565b9350610664818560208601610604565b61066d8161062e565b840191505092915050565b600060408301600083015161069060008601826105d9565b50602083015184820360208601526106a8828261063f565b9150508091505092915050565b60006106c18383610678565b905092915050565b6000602082019050919050565b60006106e1826105ad565b6106eb81856105b8565b9350836020820285016106fd856105c9565b8060005b85811015610739578484038952815161071a85826106b5565b9450610725836106c9565b925060208a01995050600181019050610701565b50829750879550505050505092915050565b6000602082019050818103600083015261076581846106d6565b905092915050565b60008060008060608587031215610787576107866104a8565b5b600085013567ffffffffffffffff8111156107a5576107a46104ad565b5b6107b1878288016104c1565b945094505060206107c487828801610538565b92505060406107d587828801610538565b91505092959194509250565b6107ea81610517565b82525050565b600082825260208201905092915050565b600061080c826105e8565b61081681856107f0565b9350610826818560208601610604565b61082f8161062e565b840191505092915050565b600060408201905061084f60008301856107e1565b81810360208301526108618184610801565b90509392505050565b600060208201905061087f60008301846107e1565b92915050565b6000806000806000606086880312156108a1576108a06104a8565b5b600086013567ffffffffffffffff8111156108bf576108be6104ad565b5b6108cb888289016104c1565b955095505060206108de88828901610538565b935050604086013567ffffffffffffffff8111156108ff576108fe6104ad565b5b61090b888289016104c1565b92509250509295509295909350565b600081905092915050565b82818337600083830152505050565b6000610940838561091a565b935061094d838584610925565b82840190509392505050565b6000610966828486610934565b91508190509392505050565b7f4e487b7100000000000000000000000000000000000000000000000000000000600052602260045260246000fd5b600060028204905060018216806109b957607f821691505b6020821081036109cc576109cb610972565b5b50919050565b7f4e487b7100000000000000000000000000000000000000000000000000000000600052603260045260246000fd5b7f4e487b7100000000000000000000000000000000000000000000000000000000600052601260045260246000fd5b6000610a3b82610517565b9150610a4683610517565b925082610a5657610a55610a01565b5b828206905092915050565b7f4e487b7100000000000000000000000000000000000000000000000000000000600052601160045260246000fd5b6000610a9b82610517565b9150610aa683610517565b9250828203905081811115610abe57610abd610a61565b5b92915050565b7f4e487b7100000000000000000000000000000000000000000000000000000000600052604160045260246000fd5b60008190508160005260206000209050919050565b60006020601f8301049050919050565b600082821b905092915050565b600060088302610b557fffffffffffffffffffffffffffffffffffffffffffffffffffffffffffffffff82610b18565b610b5f8683610b18565b95508019841693508086168417925050509392505050565b6000819050919050565b6000610b9c610b97610b9284610517565b610b77565b610517565b9050919050565b6000819050919050565b610bb683610b81565b610bca610bc282610ba3565b848454610b25565b825550505050565b600090565b610bdf610bd2565b610bea818484610bad565b505050565b5b81811015610c0e57610c03600082610bd7565b600181019050610bf0565b5050565b601f821115610c5357610c2481610af3565b610c2d84610b08565b81016020851015610c3c578190505b610c50610c4885610b08565b830182610bef565b50505b505050565b600082821c905092915050565b6000610c7660001984600802610c58565b1980831691505092915050565b6000610c8f8383610c65565b9150826002028217905092915050565b610ca8826105e8565b67ffffffffffffffff811115610cc157610cc0610ac4565b5b610ccb82546109a1565b610cd6828285610c12565b600060209050601f831160018114610d095760008415610cf7578287015190505b610d018582610c83565b865550610d69565b601f198416610d1786610af3565b60005b82811015610d3f57848901518255600182019150602085019450602081019050610d1a565b86831015610d5c5784890151610d58601f891682610c65565b8355505b6001600288020188555050505b505050505050565b6000610d7d83856107f0565b9350610d8a838584610925565b610d938361062e565b840190509392505050565b60006080820190508181036000830152610db981888a610d71565b9050610dc860208301876107e1565b610dd560408301866107e1565b8181036060830152610de8818486610d71565b905097965050505050505056fea26469706673582212204b9a5cc6df961e0638d0540dc00d9249067338b293c6b87a7579bffbe2bc277964736f6c63430008120033",
  "linkReferences": {},
  "deployedLinkReferences": {}
}