{
  "_format": "hh-sol-artifact-1",
  "contractName": "SensorData",
  "sourceName": "contracts/SensorData.sol",
  "abi": [
    {
      "anonymous": false,
      "inputs": [
        {
          "indexed": true,
          "internalType": "uint256",
          "name": "dateKey",
          "type": "uint256"
        },
        {
          "indexed": false,
          "internalType": "uint256",
          "name": "timestamp",
          "type": "uint256"
        },
        {
          "indexed": false,
          "internalType": "string",
          "name": "hexData",
          "type": "string"
        }
      ],
      "name": "SensorBatchReceived",
      "type": "event"
    },
    {
      "inputs": [
        {
          "internalType": "uint256",
          "name": "dateKey",
          "type": "uint256"
        }
      ],
      "name": "getAllSensorBatchesForDay",
      "outputs": [
        {
          "components": [
            {
              "internalType": "uint256",
              "name": "timestamp",
              "type": "uint256"
            },
            {
              "internalType": "string",
              "name": "hexData",
              "type": "string"
            }
          ],
          "internalType": "struct SensorData.SensorBatch[]",
          "name": "",
          "type": "tuple[]"
        }
      ],
      "stateMutability": "view",
      "type": "function"
    },
    {
      "inputs": [
        {
          "internalType": "uint256",
          "name": "timestamp",
          "type": "uint256"
        },
        {
          "internalType": "string",
          "name": "hexData",
          "type": "string"
        }
      ],
      "name": "receiveSensorBatch",
      "outputs": [],
      "stateMutability": "nonpayable",
      "type": "function"
    }
  ],
  "bytecode": "0x608060405234801561001057600080fd5b50610a36806100206000396000f3fe608060405234801561001057600080fd5b50600436106100365760003560e01c806327c3afd61461003b5780638a0e85e31461006b575b600080fd5b610055600480360381019061005091906102f0565b610087565b60405161006291906104bb565b60405180910390f35b61008560048036038101906100809190610542565b610194565b005b6060600080838152602001908152602001600020805480602002602001604051908101604052809291908181526020016000905b828210156101895783829060005260206000209060020201604051806040016040529081600082015481526020016001820180546100f8906105d1565b80601f0160208091040260200160405190810160405280929190818152602001828054610124906105d1565b80156101715780601f1061014657610100808354040283529160200191610171565b820191906000526020600020905b81548152906001019060200180831161015457829003601f168201915b505050505081525050815260200190600101906100bb565b505050509050919050565b600062015180846101a59190610631565b846101b09190610691565b90506000604051806040016040528086815260200185858080601f016020809104026020016040519081016040528093929190818152602001838380828437600081840152601f19601f82011690508083019250505050505050815250905060008083815260200190815260200160002081908060018154018082558091505060019003906000526020600020906002020160009091909190915060008201518160000155602082015181600101908161026a91906108a0565b505050817f96c17ce4db411bf999e051880b4d8562eec9fa91282dc641b6bea7c2b252125a8686866040516102a1939291906109ce565b60405180910390a25050505050565b600080fd5b600080fd5b6000819050919050565b6102cd816102ba565b81146102d857600080fd5b50565b6000813590506102ea816102c4565b92915050565b600060208284031215610306576103056102b0565b5b6000610314848285016102db565b91505092915050565b600081519050919050565b600082825260208201905092915050565b6000819050602082019050919050565b610352816102ba565b82525050565b600081519050919050565b600082825260208201905092915050565b60005b83811015610392578082015181840152602081019050610377565b60008484015250505050565b6000601f19601f8301169050919050565b60006103ba82610358565b6103c48185610363565b93506103d4818560208601610374565b6103dd8161039e565b840191505092915050565b60006040830160008301516104006000860182610349565b506020830151848203602086015261041882826103af565b9150508091505092915050565b600061043183836103e8565b905092915050565b6000602082019050919050565b60006104518261031d565b61045b8185610328565b93508360208202850161046d85610339565b8060005b858110156104a9578484038952815161048a8582610425565b945061049583610439565b925060208a01995050600181019050610471565b50829750879550505050505092915050565b600060208201905081810360008301526104d58184610446565b905092915050565b600080fd5b600080fd5b600080fd5b60008083601f840112610502576105016104dd565b5b8235905067ffffffffffffffff81111561051f5761051e6104e2565b5b60208301915083600182028301111561053b5761053a6104e7565b5b9250929050565b60008060006040848603121561055b5761055a6102b0565b5b6000610569868287016102db565b935050602084013567ffffffffffffffff81111561058a576105896102b5565b5b610596868287016104ec565b92509250509250925092565b7f4e487b7100000000000000000000000000000000000000000000000000000000600052602260045260246000fd5b600060028204905060018216806105e957607f821691505b6020821081036105fc576105fb6105a2565b5b50919050565b7f4e487b7100000000000000000000000000000000000000000000000000000000600052601260045260246000fd5b600061063c826102ba565b9150610647836102ba565b92508261065757610656610602565b5b828206905092915050565b7f4e487b7100000000000000000000000000000000000000000000000000000000600052601160045260246000fd5b600061069c826102ba565b91506106a7836102ba565b92508282039050818111156106bf576106be610662565b5b92915050565b7f4e487b7100000000000000000000000000000000000000000000000000000000600052604160045260246000fd5b60008190508160005260206000209050919050565b60006020601f8301049050919050565b600082821b905092915050565b6000600883026107567fffffffffffffffffffffffffffffffffffffffffffffffffffffffffffffffff82610719565b6107608683610719565b95508019841693508086168417925050509392505050565b6000819050919050565b600061079d610798610793846102ba565b610778565b6102ba565b9050919050565b6000819050919050565b6107b783610782565b6107cb6107c3826107a4565b848454610726565b825550505050565b600090565b6107e06107d3565b6107eb8184846107ae565b505050565b5b8181101561080f576108046000826107d8565b6001810190506107f1565b5050565b601f82111561085457610825816106f4565b61082e84610709565b8101602085101561083d578190505b61085161084985610709565b8301826107f0565b50505b505050565b600082821c905092915050565b600061087760001984600802610859565b1980831691505092915050565b60006108908383610866565b9150826002028217905092915050565b6108a982610358565b67ffffffffffffffff8111156108c2576108c16106c5565b5b6108cc82546105d1565b6108d7828285610813565b600060209050601f83116001811461090a57600084156108f8578287015190505b6109028582610884565b86555061096a565b601f198416610918866106f4565b60005b828110156109405784890151825560018201915060208501945060208101905061091b565b8683101561095d5784890151610959601f891682610866565b8355505b6001600288020188555050505b505050505050565b61097b816102ba565b82525050565b600082825260208201905092915050565b82818337600083830152505050565b60006109ad8385610981565b93506109ba838584610992565b6109c38361039e565b840190509392505050565b60006040820190506109e36000830186610972565b81810360208301526109f68184866109a1565b905094935050505056fea26469706673582212209cd696985794682b821c6c6f528cd33ec5b212cb2938294ee8b71970cfc1ca3a64736f6c63430008140033",
  "linkReferences": {},
  "deployedLinkReferences": {}
}